:020000040000FA
:10100000C0E30120D5520100D3F10200C15201001A
:10101000C1520100C1520100C15201000000000094
:1010200000000000000000000000000081540100EA
:10103000C1520100000000004D540100C1520100E6
:1010400031560100A1FB020031560100315601006A
:101050003156010031560100315601003156010070
:1010600057FB020031560100315601008BFB020094
:101070003156010031560100315601003156010050
:101080003156010031560100315601003156010040
:101090003156010031560100315601003156010030
:1010A0003156010031560100315601003156010020
:1010B0003156010031560100315601003156010010
:1010C0003156010031560100315601003156010000
:1010D00031560100315601003156010031560100F0
:1010E00031560100315601003156010031560100E0
:1010F00031560100315601003156010031560100D0
:1011000001F0FF01102A2BDB10F0070F08D010F8B8
:10111000013B013A8B422DD010F0070F42B3F6D1BC
:10112000F0B441EA012141EA014122F007047FF0D5
:1011300000070023F0E80256083C85EA010586EA2C
:10114000010685FA47F5A3FA87F586FA47F6A5FA68
:1011500087F68EB9EED1F0BC01F0FF0102F0070274
:1011600032B110F8013B013A83EA010313B1F8D11F
:101170000020704701387047002D06BF3546033800
:10118000073815F0010F07D1013015F4807F02BF39
:10119000013015F4C03F0130F0BC0138704700BF8A
:1011A0002DE9F14F03F11C0402EB840C4FEA930B81
:1011B0008A68CB680868496800F046F93CE9F000A5
:1011C0006040694072407B400BF1060E4EE083EABE
:1011D000134480EA134582EA134746BA96EA344438
:1011E000604000F00F1684EA063420F00F1684EAFF
:1011F000161054BA94EA0106724002F00F1486EAFF
:10120000043622F00F1486EA14124CBA6540694085
:1012100001F00F1485EA043521F00F1485EA14114A
:101220005CBA67407B4003F00F1487EA043723F071
:101230000F1487EA141344BA44404DBA4D4056BACD
:1012400056405FBA5F4087EA174886EA174B84EA40
:1012500017464FEA38488BEA1B4485EA1B4788EA61
:101260001B4580EA3440694072407B4000F0703496
:1012700000F0803500F00F3040EA440040EAD5002D
:1012800080EA900404F0332480EA8400604001F096
:10129000703401F0803501F00F3141EA440141EA38
:1012A000D50181EA910404F0332481EA840161408C
:1012B00002F0703402F0803502F00F3242EA44024C
:1012C00042EAD50282EA920404F0332482EA8402DC
:1012D000624003F0703403F0803503F00F3343EACB
:1012E000440343EAD50383EA930404F0332483EAF6
:1012F00084036340C943DB4381EA000483EA044674
:1013000086EA020183EA014382EA334583EA144311
:101310005C4084EA00077FEA040A8AEA024A8AEA11
:10132000010B87EA11488AEA374A80EA060181EA16
:101330001A418AEA030A04EA0A00454088EA0407D7
:1013400007EA0B0041408AEA0B0608EA060084EA35
:1013500034428AEA3A4602EA060358404540414090
:1013600087EA37438BEA3B4003EA000985EA09052F
:1013700082EA0309464006EA0906714085EA01004F
:1013800005EA3546464006EA314181EA304181EAC4
:10139000364606EA304686EA354634400F4086EA4D
:1013A000010508EA050886EA3640024088EA020894
:1013B00081EA314213405C4080EA020309EA0309F2
:1013C00087EA0907674088EA040806EA0A0601EA8C
:1013D0000B018AEA0B0425408AEA3A442040454042
:1013E0008BEA3B4B02EA0B02564084EA0B04234093
:1013F00059406E40694087EA364080EA384080EACA
:10140000060380EA104481EA134585EA344585EAFB
:1014100017427D4082EA354180EA05403CE9F00010
:101420006040694072407B40BEF1010E3FF6CFAE96
:1014300020BC00F05FF828606960AA60EB60BDE83E
:10144000F08F00BF00F000BA80EA101404F0F0142E
:1014500080EA0410604081EA111404F0F01481EA7B
:101460000411614082EA121404F0F01482EA0412BA
:10147000624083EA131404F0F01483EA0413634017
:1014800080EA102404F47F4480EA0420604081EA6A
:10149000112404F47F4481EA0421614082EA122489
:1014A00004F47F4482EA0422624083EA132404F4B1
:1014B0007F4483EA0423634081EA500404F05534F6
:1014C00080EA4400614083EA520404F0553482EA21
:1014D0004402634082EA900404F0333480EA8400DA
:1014E000624083EA910404F0333481EA840163406A
:1014F000704700BF82EA900404F0333480EA84002D
:10150000624083EA910404F0333481EA8401634049
:1015100081EA500404F0553480EA4400614083EAD3
:10152000520404F0553482EA4402634080EA1024F5
:1015300004F47F4480EA0420604081EA112404F42A
:101540007F4481EA0421614082EA122404F47F444A
:1015500082EA0422624083EA132404F47F4483EA8B
:101560000423634080EA101404F0F01480EA0410AD
:10157000604081EA111404F0F01481EA0411614022
:1015800082EA121404F0F01482EA0412624083EA40
:10159000131404F0F01483EA04136340704700BF8F
:1015A0002DE9F14F94464FEA930B8A68CB6808689F
:1015B0004968FFF749FF0BF1060E33E083EA134455
:1015C00080EA134582EA134746BA96EA34446040FB
:1015D00000F00F1684EA063420F00F1684EA161085
:1015E00054BA94EA0106724002F00F1486EA0436F7
:1015F00022F00F1486EA14124CBA6540694001F0DB
:101600000F1485EA043521F00F1485EA14115CBA31
:1016100067407B4003F00F1487EA043723F00F1470
:1016200087EA1413BCE8F0006040694072407B40D8
:1016300000F0E03400F0103500F00F3040EA5400C4
:1016400040EAC50080EA900404F0332480EA840074
:10165000604001F0E03401F0103501F00F3141EA53
:10166000540141EAC50181EA910404F0332481EA7E
:101670008401614002F0E03402F0103502F00F32D4
:1016800042EA540242EAC50282EA920404F0332498
:1016900082EA8402624003F0E03403F0103503F084
:1016A0000F3343EA540343EAC50383EA930404F087
:1016B000332483EA8403634081EA324787EA13458F
:1016C00081EA354690EA060484EA034B82EA1B422B
:1016D00080EA044484EA054483EA144A85EA14440F
:1016E0008BEA044B84EA374481EA0B4181EA1641D4
:1016F00004EA0A00454082EA04082BEA0800414057
:101700008AEA0B0602EA060084EA34438AEA3A4689
:1017100003EA060778404540414088EA38478BEAAB
:101720003B4007EA000985EA090583EA07094640C4
:1017300006EA0906714085EA010005EA3546464099
:1017400006EA314181EA304181EA364606EA30460E
:1017500086EA3546344008EA010886EA01052A404F
:1017600086EA364003405A4081EA31431F407C40BC
:1017700080EA030709EA070988EA0908544088EA69
:10178000020806EA0A0601EA0B018AEA0B02154082
:101790008AEA3A42104045408BEA3B4003405E40B3
:1017A0004240174079404D404E40E443F64386EABC
:1017B00018435D4085EA054083EA134386EA034106
:1017C00083EA384284EA114383EA04435FEA3343FD
:1017D000BEF1010E3FF6F2AE1ED4BCE8F000604050
:1017E000694072407B4020BCFFF784FE286069603E
:1017F000AA60EB60BDE8F08F2DE9E0414FF2F00206
:1018000080EA1031114080EA0130484041088208E6
:10181000C3084FF0000E4FE700F0113001F0113116
:1018200002F0113203F0113340EA410040EA820035
:1018300040EAC3004FF2F00280EA1031114080EA22
:1018400001304840BDE8E0812DE9F04F02F11C0570
:101850000646074600EB850851F8040B043A46F8A3
:10186000040BF9D14FF0010CFFF7C6FF5FEA3020FF
:1018700080EA0C001ECF41404A4053405C401EC6E7
:101880002000464517D04FEA4C0C1CF4807F18BF4F
:10189000ACF1E50C2C2DE7D03C2D06D1FFF7ACFFC9
:1018A00006CF41404A4006C6100006CF41404A409C
:1018B00006C61000D8E736E90F00FFF7C5FD043D66
:1018C00086E80F00F7D1BDE8F08F00BF2DE9F003E7
:1018D00091E8F801B2E802125B1854EB090455EBE9
:1018E0000C05B2E802124E4157EB090758EB0C0801
:1018F00080E8F80180410130BDE8F003704700BF87
:101900002DE9F00391E8F801B2E802125B1A74EBDA
:10191000090475EB0C05B2E802128E4177EB09075A
:1019200078EB0C0880E8F80180414042BDE8F00304
:10193000704700BF2DE9F001524290E83800B1E84D
:10194000C00116409B1917407C4118EA020855EB6C
:10195000080538C090E8380091E8C001164073418E
:1019600017407C4118EA020855EB080538C0804151
:101970000130BDE8F00170472DE9F001524290E8D6
:101980003800B1E8C00116409B1B1740BC4118EA63
:10199000020875EB080538C090E8380091E8C001EE
:1019A0001640B3411740BC4118EA020875EB080520
:1019B00038C080414042BDE8F00170472DE9F00198
:1019C00052424FF0030890E8300091E8C000A31B9A
:1019D0001340E41AF618EB1B1340ED1AFF1830C041
:1019E000C0C1B8F10108EED1BDE8F001704700BFF9
:1019F00092E8F0032DE9F003B1E8001E06C906B431
:101A0000A9FB04120891AAFB0403E9FB6520EBFB88
:101A100064300992AAFB0521ECFB6401E9FB663204
:101A2000EAFB6602EBFB66120A93A9FB0743EAFB9B
:101A30006713EBFB6723EBFB6504ECFB6514EAFB28
:101A40006824EBFB6834A9FB0865DDF81C80E9FB22
:101A50006825EAFB6835EBFB6845BDE8000EE9FB4D
:101A60006B16EAFB6B26ECFB6736E9FB6746EAFB85
:101A700067565DF804BBA9FB0B87EAFB6B37DDF803
:101A800008B0ECFB6B47E9FB6B57EAFB6B675DF853
:101A900004BBECFB6B28E9FB6B38EAFB6B4802B03C
:101AA0005DF804BBECFB6B58E9FB6B68EAFB6B78F9
:101AB000704700BF2DE9F14F83B0FFF799FFDDF8C4
:101AC0000C9009F10C0989E8FF010FBC83E80700BD
:101AD000BDE8F08F91E8801FA7FB07120091A8FBDB
:101AE0000703E7FB6820E7FB69300192A7FB0921A8
:101AF000E7FB6A01E8FB6832E7FB6A02E7FB6B126F
:101B00000293A8FB0943E7FB6B13E7FB6C23E8FB9D
:101B10006904E8FB6A14E7FB6C24E8FB6C34A8FB5F
:101B20000A65E8FB6B25E8FB6C35E9FB6C45E9FBD6
:101B30006916E8FB6B26E9FB6B36E9FB6C46EAFBB2
:101B40006C56A9FB0A87E9FB6B37EAFB6B47EAFB9C
:101B50006C57EBFB6C67E9FB6A28EAFB6A38EAFB27
:101B60006B48EBFB6B58EBFB6C68ECFB6C787047DD
:101B70002DE9F14F83B0FFF7ADFFDDF80C9009F1CF
:101B80000C0989E8FF010FBC83E80700BDE8F08F6E
:101B90002DE9F00391E8F803B2E802105B1854EB6A
:101BA0000C04B2E802104D4156EB0C0692E8061008
:101BB0004F4158EB020859EB0C0980E8F8038041CB
:101BC0000130BDE8F00370472DE9F00391E8F80318
:101BD000B2E802105B1A74EB0C04B2E802108D41FB
:101BE00076EB0C0692E806108F4178EB020879EB51
:101BF0000C0980E8F80380414042BDE8F0037047DB
:101C00002DE9F003524290E83800B1E88003174014
:101C1000DB1918EA020854EB080419EA020955EB2B
:101C2000090538C090E8780091E8820311404B41E3
:101C300017407C4118EA020855EB080519EA020929
:101C400056EB090678C080410130BDE8F0037047CB
:101C50002DE9F003524290E83800B1E880031740C4
:101C6000DB1B18EA020874EB080419EA020975EB99
:101C7000090538C090E8780091E8820311408B4153
:101C80001740BC4118EA020875EB080519EA020979
:101C900076EB090678C080414042BDE8F00370470A
:101CA0002DE9F00152424FF0030890E8300091E82E
:101CB000C000A31B1340E41AF618EB1B1340ED1AE7
:101CC000FF1830C0C0C1B8F10108EED104680E6839
:101CD000A31B1340E41AF61804600E60BDE8F0017F
:101CE000704700BF00B592E8C40F2DE9C40FB1E8FA
:101CF000005E02B4A9FB02500995AAFB0234E9FB7D
:101D00006603EBFB62430A90AAFB0605ECFB623517
:101D1000E9FB6740E9FB6830EEFB62500B94AAFBDD
:101D20000721EAFB6851EBFB6801DDF81480EBFB4F
:101D30006632ECFB6652EAFB6802EBFB68120C931E
:101D4000A9FB0843DDF81880E9FB6803EAFB681388
:101D5000EBFB6823EBFB6754EEFB6604DDF81C80AD
:101D6000E9FB6814EAFB6824EBFB68340D955DF829
:101D7000049B99E8000CACFB0765DDF80C90ECFBCC
:101D80006915EEFB6925EAFB6935EBFB6945DDF872
:101D90000090EAFB6906EBFB6916DDF81090ECFB9E
:101DA0006926EEFB6936EAFB6946EBFB6956DDF80E
:101DB0000490AAFB0987EBFB6927DDF81490ECFB84
:101DC0006937EEFB6947EAFB6957EBFB6967DDF8AA
:101DD0000890EEFB6918EAFB6928EBFB6938DDF82F
:101DE0001890ECFB6948EEFB6958EAFB6968EBFB6D
:101DF000697807B000BD00BF2DE9F14F85B0FFF74E
:101E000071FFDDF8149009F1140989E8FF013FBC66
:101E100085E81F00BDE8F08F00B591E8805FA7FB63
:101E200007500195A7FB0834E7FB6803E7FB69430C
:101E30000290A7FB0905E7FB6A35E8FB6840E7FB72
:101E40006A30E7FB6B500394A8FB0921E7FB6B5159
:101E5000E7FB6C01E8FB6932E8FB6A52E7FB6C02C6
:101E6000E7FB6E120493A8FB0A43E8FB6B03E7FB56
:101E70006E13E8FB6E23E9FB6954E8FB6B04E8FB97
:101E80006C14E8FB6E24E9FB6E340595A9FB0A652A
:101E9000E8FB6C15E9FB6C25E9FB6E35EAFB6E454A
:101EA000E9FB6A06E9FB6B16E9FB6C26EAFB6C367C
:101EB000EAFB6E46EBFB6E56A9FB0B87EAFB6B2732
:101EC000EAFB6C37EBFB6C47EBFB6E57ECFB6E678A
:101ED000EAFB6A18EAFB6B28EBFB6B38EBFB6C4800
:101EE000ECFB6C58ECFB6E68EEFB6E7800BD00BF3F
:101EF0002DE9F14F85B0FFF78FFFDDF8149009F160
:101F0000140989E8FF013FBC85E81F00BDE8F08F98
:101F10002DE9F00791E8F807B2E802105B1854EBDE
:101F20000C04B2E802104D4156EB0C06B2E8021068
:101F30004F4158EB0C08B2E8021059EB01095AEB7B
:101F40000C0A80E8F80780410130BDE8F0077047CF
:101F50002DE9F00791E8F807B2E802105B1A74EB7C
:101F60000C04B2E802108D4176EB0C06B2E80210C8
:101F70008F4178EB0C08B2E8021079EB01097AEB9B
:101F80000C0A80E8F80780414042BDE8F00770473E
:101F90002DE9F007524290E87800B1E88007174039
:101FA000DB1918EA020854EB080419EA020955EB98
:101FB00009051AEA020A56EB0A0678C090E878008A
:101FC000B1E8800717407B4118EA020854EB080487
:101FD00019EA020955EB09051AEA020A56EB0A0644
:101FE00078C080410130BDE8F00770472DE9F00767
:101FF000524290E87800B1E880071740DB1B18EAEE
:10200000020874EB080419EA020975EB09051AEADB
:10201000020A76EB0A0678C090E87800B1E88007FB
:102020001740BB4118EA020874EB080419EA0209D8
:1020300075EB09051AEA020A76EB0A0678C08041B8
:102040004042BDE8F00770472DE9F00152424FF0E1
:10205000040890E8300091E8C000A31B1340E41A84
:10206000F618EB1B1340ED1AFF1830C0C0C1B8F1D1
:102070000108EED1BDE8F001704700BF00B592E85D
:10208000DC072DE9DC07B1E8805702B4A7FB025159
:102090000A95A8FB020BE7FB6310E9FB62B00B910A
:1020A000A8FB0351EAFB6201E7FB64B5E7FB6605A9
:1020B000E8FB6615CDF830B0A9FB03B6EAFB631662
:1020C000ECFB6356E8FB640BE9FB641BEAFB645B17
:1020D000ECFB646B0D90ACFB0230059CEEFB625098
:1020E000E9FB6460EAFB64B0E7FB6431E8FB645140
:1020F000069CE8FB6461E9FB64B1EAFB64010E93B2
:10210000A7FB0432079CE7FB6462E8FB64B2E9FBCF
:102110006402EAFB6412049CE9FB6453EAFB646317
:10212000089CE7FB64B3E8FB6403E9FB6413EAFB88
:1021300064230F955DF8049B99E80006DDF80080A4
:10214000A9FB0854EAFB68B4DDF81080ECFB6804D6
:10215000EEFB6814E9FB6824EAFB6834DDF80480D0
:10216000EEFB6865E9FB68B5EAFB6805DDF81480FD
:10217000ECFB6815EEFB6825E9FB6835EAFB684572
:102180000F96DDF80880AEFB0876E9FB6806EAFBEF
:102190006816DDF81880ECFB6826EEFB6836E9FB74
:1021A0006846EAFB6856DDF80C80ECFB68B7EEFB8E
:1021B0006807E9FB6817EAFB6827DDF81C80ECFB81
:1021C0006837EEFB6847E9FB6857EAFB686708B0C9
:1021D00000BD00BF2DE9F14F87B0FFF74FFFDDF8DD
:1021E0001C8008F1200888E8FF00FFBC87E87F0812
:1021F000BDE8F08F00B591E89857A3FB0352019515
:10220000A3FB0401E3FB6420E3FB67100292A3FB42
:102210000752E3FB6802E4FB6415E3FB6805E3FB9C
:1022200069250391A4FB07B6E3FB6926E3FB6A5625
:10223000E4FB670BE4FB682BE3FB6A5BE3FB6C6B83
:102240000490A4FB0810E4FB6950E3FB6C60E3FB23
:102250006EB0E7FB6721E4FB6951E4FB6A61E3FBD5
:102260006EB1E4FB6E010592A7FB0832E4FB6A62E3
:10227000E4FB6CB2E4FB6E02E7FB6E12E7FB685313
:10228000E7FB6963E4FB6CB3E7FB6C03E7FB6E13EE
:10229000E8FB6E230695A7FB0954E7FB6AB4E7FB4E
:1022A0006C04E8FB6C14E8FB6E24E9FB6E34E8FB7D
:1022B0006865E7FB6AB5E8FB6A05E8FB6C15E9FBB6
:1022C0006C25E9FB6E35EAFB6E450796A8FB09769F
:1022D000E8FB6A06E9FB6A16E9FB6C26EAFB6C364A
:1022E000EAFB6E46ECFB6E56E8FB69B7E9FB690753
:1022F000E9FB6A17EAFB6A27EAFB6C37ECFB6C47E1
:10230000ECFB6E57EEFB6E6700BD00BF2DE9F14F91
:1023100087B0FFF76FFFDDF81C8008F1200888E820
:10232000FF00FFBC87E87F08BDE8F08F2DE9F00FC4
:10233000B1E8F801B2E8001E13EB090354EB0A04FC
:1023400055EB0B0556EB0C06B2E8001E57EB0907E0
:1023500058EB0A08A0E8F80191E8F80153EB0B03E9
:1023600054EB0C0492E8001E55EB090556EB0A06E7
:1023700057EB0B0758EB0C0880E8F801804101305F
:10238000BDE8F00F704700BF2DE9F00FB1E8F8018C
:10239000B2E8001EB3EB090374EB0A0475EB0B05FE
:1023A00076EB0C06B2E8001E77EB090778EB0A081B
:1023B000A0E8F80191E8F80173EB0B0374EB0C044F
:1023C00092E8001E75EB090576EB0A0677EB0B0722
:1023D00078EB0C0880E8F80180414042BDE8F00F3E
:1023E000704700BF2DE9F007524290E87800B1E84D
:1023F00080071740DB1918EA020854EB080419EAB1
:10240000020955EB09051AEA020A56EB0A0678C0DA
:1024100090E87800B1E8800717407B4118EA02088D
:1024200054EB080419EA020955EB09051AEA020AF5
:1024300056EB0A0678C090E87800B1E880071740AC
:102440007B4118EA020854EB080419EA020955EB2B
:1024500009051AEA020A56EB0A0678C080410130E3
:10246000BDE8F007704700BF2DE9F007524290E841
:102470007800B1E880071740DB1B18EA020874EB0C
:10248000080419EA020975EB09051AEA020A76EB53
:102490000A0678C090E87800B1E880071740BB4191
:1024A00018EA020874EB080419EA020975EB090539
:1024B0001AEA020A76EB0A0678C090E87800B1E8DA
:1024C00080071740BB4118EA020874EB080419EAB8
:1024D000020975EB09051AEA020A76EB0A0678C0CA
:1024E00080414042BDE8F007704700BF2DE9F00190
:1024F00052424FF0060890E8300091E8C000A31B5C
:102500001340E41AF618EB1B1340ED1AFF1830C005
:10251000C0C1B8F10108EED1BDE8F001704700BFBD
:1025200003B5B2E8005E92E8FC012DE9FC012DE95B
:10253000005E0FC9A0FB0967A1FB0958E0FB6A75A3
:10254000E2FB69850C9CC4E90067A1FB0A76E3FB0A
:102550006956E0FB6B87E1FB6B57E2FB6B67C4F8E6
:102560000880A0FB0C98E1FB6C68E2FB6C78E2FB56
:102570006A59E3FB6A69E1FB6E79E2FB6E89E5600B
:10258000A0FB0EBADDF814E0E0FB6E7AE1FB6E8A88
:10259000E2FB6E9A0D9CD4E90445DDF800E0E4FB13
:1025A0006E6BE5FB6E7BE3FB6C8BE4FB6C9BE5FBEE
:1025B0006CABDDF830E0CEF81060019EA4FB06ECB9
:1025C000E5FB668C049EE3FB669CE4FB66ACE5FBE6
:1025D00066BC029EE3FB667EE4FB668EE5FB669EC0
:1025E000059EE3FB66AEE4FB66BEE5FB66CE0C9C97
:1025F00004F1140484E8805F06AD95E8E003A0FBD5
:1026000005CEA1FB05BAE0FB66EBE2FB65AB2DE96D
:102610000050A1FB06ECE3FB65BCE0FB67AEE1FB11
:1026200067BEE2FB67CEA0FB0854E1FB68C4E2FB97
:1026300068E4E2FB66B5E3FB66C5E1FB69E5E2FB46
:102640006945A0FB0976DDF83490E0FB69E6E1FB23
:102650006946E2FB69560F9AD2E90412DDF8209030
:10266000E1FB69C7E2FB69E7E3FB6847E1FB685709
:10267000E2FB68670998A1FB0098E2FB60480C98B0
:10268000E3FB6058E1FB6068E2FB60780A98E3FBDB
:1026900060E9E1FB6049E2FB60590D98E3FB60698A
:1026A000E1FB6079E2FB60890E9800F1300181E87E
:1026B000F0038769BDE800030D9800F118003FC8DA
:1026C000009EE0FB6687E1FB6697E2FB66A7E3FB03
:1026D00066B7E4FB66C7E5FB66E70C9EC6F81880A4
:1026E000D6F81C80019EE0FB6698E1FB66A8E2FB41
:1026F00066B8E3FB66C8E4FB66E8E5FB66780C9E1B
:10270000C6F81C90D6F82090029EE0FB66A9E1FB7B
:1027100066B9E2FB66C9E3FB66E9E4FB6679E5FBC3
:1027200066890C9EC6F820A0D6F824A0039EE0FB84
:1027300066BAE1FB66CAE2FB66EAE3FB667AE4FBA3
:10274000668AE5FB669A0C9EC6F824B0D6F828B0D7
:10275000049EE0FB66CBE1FB66EBE2FB667BE3FB02
:10276000668BE4FB669BE5FB66AB0C9EC6F828C057
:10277000D6F82CC0059EE0FB66ECE1FB667CE2FB34
:10278000668CE3FB669CE4FB66ACE5FB66BC0C9EDA
:10279000C6F82CE0366BDDF818E0E0FB6E76E1FB66
:1027A0006E86E2FB6E96E3FB6EA6E4FB6EB6E5FB7F
:1027B0006EC6DDF830E0CEF83070DEF83470DDF84B
:1027C0001CE0E0FB6E87E1FB6E97E2FB6EA7E3FB8C
:1027D0006EB7E4FB6EC7E5FB6E67DDF830E0CEF860
:1027E0003480DEF83880DDF820E0E0FB6E98E1FB15
:1027F0006EA8E2FB6EB8E3FB6EC8E4FB6E68E5FB17
:102800006E78DDF830E0CEF83890DEF83C90DDF8F8
:1028100024E0E0FB6EA9E1FB6EB9E2FB6EC9E3FBCD
:102820006E69E4FB6E79E5FB6E89DDF830E0CEF889
:102830003CA0DEF840A0DDF828E0E0FB6EBAE1FB4A
:102840006ECAE2FB6E6AE3FB6E7AE4FB6E8AE5FB1E
:102850006E9ADDF830E0CEF840B0DEF844B0DDF836
:102860002CE0E0FB6ECBE1FB6E6BE2FB6E7BE3FBEF
:102870006E8BE4FB6E9BE5FB6EAB0C98C0F844C01E
:102880000EB000BD2DE9F14FFFF74AFE5DF804CB15
:102890000CF1480C8CE8C00FBDE8F08F01B591E851
:1028A000FF0F2DE9FF0FA0FB0089A1FB00BAE0FBA1
:1028B000619BE2FB60AB0C9EE6E80289A1FB017C18
:1028C000E3FB60BCE0FB62A7E1FB62B7E2FB62C72F
:1028D000A0FB0398E1FB63C8E2FB6378E2FB61B90C
:1028E000E3FB61C9E1FB6479E2FB6489E6E802ABE2
:1028F000A0FB04BAE0FB657AE1FB658AE2FB659A1E
:10290000E4FB60CBE5FB607BE3FB638BE4FB639B59
:10291000E5FB63AB46F804CBA4FB01ECE5FB618C63
:10292000E3FB649CE4FB64ACE5FB64BCE3FB627E1C
:10293000E4FB628EE5FB629EE3FB65AEE4FB65BEF5
:10294000E5FB65CE86E8805F06AD95E8E003A0FB79
:1029500005CEA1FB05BAE0FB66EBE2FB65AB2DE91A
:102960000050A1FB06ECE3FB65BCE0FB67AEE1FBBE
:1029700067BEE2FB67CEA0FB0854E1FB68C4E2FB44
:1029800068E4E2FB66B5E3FB66C5E1FB69E5E2FBF3
:102990006945A0FB0976DDF83490E0FB69E6E1FBD0
:1029A0006946E2FB6956DDE906120898E1FB60C75B
:1029B000E2FB60E7E3FB6847E1FB6857E2FB68671F
:1029C0000998A1FB0098E2FB60480C98E3FB605873
:1029D000E1FB6068E2FB60780A98E3FB60E9E1FBF9
:1029E0006049E2FB60590D98E3FB6069E1FB6079A7
:1029F000E2FB60890E9800F1300181E8F0038769FD
:102A0000BDE8000306A83FC8009EE0FB6687E1FB27
:102A10006697E2FB66A7E3FB66B7E4FB66C7E5FBE8
:102A200066E70C9EC6F81880D6F81C80019EE0FB75
:102A30006698E1FB66A8E2FB66B8E3FB66C8E4FBC8
:102A400066E8E5FB66780C9EC6F81C90D6F82090E8
:102A5000029EE0FB66A9E1FB66B9E2FB66C9E3FB07
:102A600066E9E4FB6679E5FB66890C9EC6F820A062
:102A7000D6F824A0039EE0FB66BAE1FB66CAE2FB3F
:102A800066EAE3FB667AE4FB668AE5FB669A0C9EDF
:102A9000C6F824B0D6F828B0049EE0FB66CBE1FB74
:102AA00066EBE2FB667BE3FB668BE4FB669BE5FB88
:102AB00066AB0C9EC6F828C0D6F82CC0059EE0FB7D
:102AC00066ECE1FB667CE2FB668CE3FB669CE4FB68
:102AD00066ACE5FB66BC0C9EC6F82CE0366BE0FBF2
:102AE0006076E1FB6086E2FB6096E3FB60A6E4FBB8
:102AF00060B6E5FB60C6DDF830E0CEF83070DEF899
:102B00003470E0FB6187E1FB6197E2FB61A7E3FBC7
:102B100061B7E4FB61C7E5FB6167CEF83480DEF89E
:102B20003880E0FB6298E1FB62A8E2FB62B8E3FB5D
:102B300062C8E4FB6268E5FB6278CEF83890DEF8A4
:102B40003C90E0FB63A9E1FB63B9E2FB63C9E3FBF3
:102B50006369E4FB6379E5FB6389CEF83CA0DEF8AA
:102B600040A0E0FB64BAE1FB64CAE2FB646AE3FBF9
:102B7000647AE4FB648AE5FB649ACEF840B0DEF840
:102B800044B0E0FB65CBE1FB656BE2FB657BE3FBFF
:102B9000658BE4FB659BE5FB65ABCEF844C00DB0EF
:102BA00000BD00BF2DE9F14FFFF778FE5DF804CBC3
:102BB0000CF1480C8CE8C00FBDE8F08F2DE9F04F08
:102BC000B0E8FE0783B02DE9010790E8005F4FF001
:102BD0000A0006900198DB199CEA030C18EB3C48AC
:102BE00097EA080713EB375393EA3C4C18EB3C6821
:102BF00098EA375724189EEA040E19EB3E4990EAEA
:102C0000090014EB305494EA3E4E19EB3E6999EA00
:102C10003050CDE90489DDE9028949199AEA010AAF
:102C200018EB3A4895EA080511EB355191EA3A4A12
:102C300018EB3A6898EA355592199BEA020B19EBA2
:102C40003B4996EA090612EB365292EA3B4B19EBE6
:102C50003B6999EA365613EB706393EA3B6B18EBCA
:102C60003B4898EA706013EB305393EA3B4B5FEAC2
:102C70003B6B18EB0B0898EA30505FEA706014EB7E
:102C8000756494EA3C6C19EB3C4999EA756514EB60
:102C9000355494EA3C4C5FEA3C6C19EB0C0999EA18
:102CA00035555FEA7565CDE90289DDE9048911EBE7
:102CB000766191EA3E6E18EB3E4898EA766611EB33
:102CC000365191EA3E4E5FEA3E6E18EB0E0898EAE6
:102CD00036565FEA766612EB776292EA3A6A19EB49
:102CE0003A4999EA776712EB375292EA3A4A5FEA31
:102CF0003A6A19EB0A0999EA37575FEA7767019050
:102D0000069801387FF465AF01BC80E8005FBDE83C
:102D1000000700E9FE0703B0BDE8F08F30B44FF0C4
:102D2000000310F8014B11F8015B013A84EA050435
:102D300043EA0403F5D1A3F101034FEAD37030BC99
:102D4000704700BF4FF0000310F8012B013943EA30
:102D50000203F9D1A3F101034FEAD370704700BF1A
:102D600030B411F8014B12F8015B6C4000F8014BD4
:102D7000013BF6D130BC70472DE9F00391E8F80330
:102D8000B2E802105B1854EB0C04B2E802104D419B
:102D900056EB0C0692E806104F4158EB020859EB2F
:102DA0000C098941013B74F1000475F1000576F1CD
:102DB000FF3677F1FF3778F1FF3879F1FF3951F1BC
:102DC000000113EBD17354F1000455F100054E419D
:102DD0004F4158EB010859EB010980E8F803BDE8C1
:102DE000F00370472DE9F00391E8F803B2E8021010
:102DF0005B1A74EB0C04B2E802108D4176EB0C0602
:102E000092E806108F4178EB020879EB0C098941B2
:102E100013EBD17354F1000455F100054E414F41BD
:102E200058EB010859EB010980E8F803BDE8F0030D
:102E3000704700BF2DE9F14F85B0FEF753FFDDE984
:102E400003ABBAEB05097BEB060AB84171EB08014D
:102E500072F1000273F1000374F100046BEB0B0BD1
:102E6000491972417B4154EB08044BF10005BDE860
:102E7000C001BEEB0E0E59EB02095AEB030A60418A
:102E800069415EF1000E96419F4178EB040879EBB1
:102E900005097AF1000A70F1000B71F1000C6EF176
:102EA000010E16EBDE7657F1000758F1000859EBDA
:102EB0000E095AEB0E0A5BEB0E0B5CEB0E0C02B02C
:102EC00001BC80E8C01FBDE8F08F00BF2DE9F14FC5
:102ED00085B0FEF7A1FFB2E72DE9F00791E8F8070A
:102EE000B2E802105B1854EB0C04B2E802104D413A
:102EF00056EB0C06B2E802104F4158EB0C08B2E852
:102F0000021059EB01095AEB0C0A8941B3F1FF3366
:102F100074F1FF3475F1FF3576F1000677F10007A3
:102F200078F1000879F101097AF1FF3A51F10001D5
:102F30005B184C414D4156F1000657F1000758F11E
:102F4000000859EBD1795AEB010A80E8F807BDE88F
:102F5000F00770472DE9F00791E8F807B2E8021092
:102F60005B1A74EB0C04B2E802108D4176EB0C0690
:102F7000B2E802108F4178EB0C08B2E8021079EB4E
:102F800001097AEB0C0A89415B184C414D4156F11D
:102F9000000657F1000758F1000859EBD1795AEBB8
:102FA000010A80E8F807BDE8F007704718EB04084D
:102FB00059EB05095AEB060A5BEB070B5FF0000CB7
:102FC0004CF1000C18EB050859EB06095AEB070AFF
:102FD0005BEB070B50EB0C005FF0000C51EB0C01AE
:102FE00052EB0C0263414CF1000CB8EB070879F18D
:102FF00000097AF1000A7BEB040BA841B141A24120
:10300000B3416CF1000CBBEB050BB041B941AA41D7
:10301000BB416CF1000C4CF001068CF0020718EB80
:10302000060859EB6C095AEB6C0A7BEB6C0B70EBE6
:103030006C0471EB6C0572EB670653EB6C076CEB81
:103040006C0C18EB0C0059EB0C015AEB0C025BF109
:10305000000354F1000455F1000556EBDC7657EB04
:103060000C0770472DE9F14F87B0FFF707F8DDF83F
:103070001080DDF81490DDF818A0FFF797FFBDE889
:10308000000FFFF793FF03B05DF8048B88E8FF00A3
:10309000BDE8F08F2DE9F14F87B0FFF7ABF8DDF811
:1030A0001080DDF81490DDF818A0FFF77FFFBDE871
:1030B000000FFFF77BFF03B05DF8048B88E8FF008B
:1030C000BDE8F08F2DE9F04FB1E8C003B2E8380455
:1030D000F618674158EB050859EB0A092DE9C003BA
:1030E000B1E8C003B2E838045E41674158EB050817
:1030F00059EB0A0991E8005C3CCA5AEB020A5BEB07
:10310000030B5CEB040C5EEB050E89413CBCB2F199
:10311000FF3273F1000374F1000475F1FF3556F1CD
:10312000010677F1FF3778F1FF3879F1FF397AF14D
:10313000FF3A7BF1FF3B7CF1FF3C7EF1FF3E51F11A
:103140000001521853F1000354F100044D4156EBB5
:1031500041064F4158EB010859EB01095AEB010AAE
:103160005BEB010B5CEB010C5EEB010E80E8FC5F9E
:10317000BDE8F08F2DE9F04FB1E8C003B2E83804A4
:10318000F61AA74178EB050879EB0A092DE9C00387
:10319000B1E8C003B2E838049E41A74178EB0508C6
:1031A00079EB0A0991E8005C3CCA7AEB020A7BEBF6
:1031B000030B7CEB040C7EEB050E89413CBC5218E2
:1031C00053F1000354F100044D4156EB41064F41C9
:1031D00058EB010859EB01095AEB010A5BEB010BB3
:1031E0005CEB010C5EEB010E80E8FC5FBDE8F08F4C
:1031F0008019794152EB080253EB090354EB0A049E
:1032000055EB0B054CF1000C9B197C4155EB080567
:103210004CF1000CA4197D414CF1000C891BBA4102
:1032200073EB080374EB090475EB0A056CF1000CF1
:10323000DDE90C6716EB0C064FEAEC7C57EB0C074C
:103240004CF1000C16EB080657EB09074CF1000C8B
:1032500016EB090657EB0A074CF1000CB6EB0B0610
:10326000DDF8188077EB08076CF1000CDDE90E89BA
:1032700018EB0C084FEAEC7C59EB0C094CF1000CF4
:1032800018EB0A0859EB0B09DDF818A04CEB0A0CF7
:1032900018EB0B0859EB0A094CF1000CDDE910ABF7
:1032A0001AEB0C0A5BF1000B704700BF2DE9F14FE0
:1032B00098B06846FFF734F906A83FC84FF0000CF5
:1032C000CDF818C04FF0010CFFF792FF0DF1300C54
:1032D0008CE83F004FF0000C4CF1000C9DE83F00E3
:1032E000CDF818C0FFF784FF6CEB0C0C10EB0C0052
:1032F00051F1000152F1000253EB0C0354EB4C046A
:1033000055EB0C0556EB0C0657EB0C0758EB0C086D
:1033100059EB0C095AEB0C0A5BEB0C0B18B05DF87F
:1033200004CB8CE8FF0FBDE8F08F00BF2DE9F14F13
:1033300098B06846FFF7B2FABEE700BF2DE9F14F3B
:10334000F8C892E8005E19EB03095AEB040A5BEB3C
:10335000050B5CEB060C4EEB070E91E8E001A9FBB8
:103360000502AAFB0543E9FB6624EAFB6634A9FBD8
:103370000765E9FB6845B1E80003EBFB6836ECFB49
:103380006846EEFB6856ABFB0987ECFB6957EEFB22
:10339000696791E80202EAFB6148EBFB6158ECFBCC
:1033A0006168EEFB61784FF00001EAFB0951EBFB2D
:1033B0006961ECFB6971EEFB69814FF4A03C4FEA57
:1033C000154949EA06495FF0000AE9FB0C0A4FEA91
:1033D000164646EA0746E6FB6C2A4FEA174747EAD5
:1033E0000847E7FB6C3A4FEA184848EA0148E8FB0F
:1033F0006C4AADB25544AF0805F0030507EB8707EB
:10340000C01952F1000153F1000254F1000345F1DB
:10341000000420BC1FC5BDE8F08F00BF30B490E8A9
:103420003C10511D53F1000154F1000155F1000110
:103430004CF100014FEA9101494201F00501521897
:1034400053F1000354F1000455F100054CF1000C58
:103450000CF0030C80E83C1030BC70472DE9F04FB5
:1034600090E8F00F00F140004FF0040E59E0F0B486
:10347000826BC36B04680525242687593C444FEAB8
:10348000724787EAF24787EA92273C4442684FEA4C
:10349000F21787EAB24787EAD2073C4440F8044B68
:1034A000032D08BF6FF01B0687593A444FEA734754
:1034B00087EAF34787EA93273A4443684FEAF317CA
:1034C00087EAB34787EAD3073A4440F8042B875981
:1034D0003B444FEA744787EAF44787EA94273B4422
:1034E00044684FEAF41787EAB44787EAD4073B44B5
:1034F00040F8043B013DC0D1A0F13C00076A3C44C8
:103500004FEA724787EAF24787EA92273C4402680B
:103510004FEAF21787EAB24787EAD2073C44C4630E
:10352000F0BC4FF0020288EA781C8CEAF84C0BEBF6
:10353000BC1C8AEA090303EA080383EA0A039C44E1
:1035400050F8043B9C4451F8043B9C44674444EAD3
:10355000050B0BEA060B04EA05034BEA030BE344F5
:1035600084EAF42383EA34530BEBB30B87EA771C2A
:103570008CEAF74C0AEBBC1C89EA080303EA070350
:1035800083EA09039C4450F8043B9C4451F8043BF3
:103590009C4466444BEA040A0AEA050A0BEA04035F
:1035A0004AEA030AE2448BEAFB2383EA3B530AEB31
:1035B000B30A86EA761C8CEAF64C09EBBC1C88EA56
:1035C000070303EA060383EA08039C4450F8043B1C
:1035D0009C4451F8043B9C4465444AEA0B0909EABF
:1035E00004090AEA0B0349EA0309E1448AEAFA23D7
:1035F00083EA3A5309EBB30985EA751C8CEAF54C6A
:1036000008EBBC1C87EA060303EA050383EA070309
:103610009C4450F8043B9C4451F8043B9C44644453
:1036200049EA0A0808EA0B0809EA0A0348EA030813
:10363000E04489EAF92383EA395308EBB30884EAC2
:10364000741C8CEAF44C07EBBC1C86EA050303EA05
:10365000040383EA06039C4450F8043B9C4451F85D
:10366000043B9C44E34448EA090707EA0A0708EADE
:10367000090347EA0307674488EAF82383EA3853D3
:1036800007EBB3078BEA7B1C8CEAFB4C06EBBC1CFC
:1036900085EA040303EA0B0383EA05039C4450F81C
:1036A000043B9C4451F8043B9C44E24447EA08062E
:1036B00006EA090607EA080346EA0306664487EABB
:1036C000F72383EA375306EBB3068AEA7A1C8CEABF
:1036D000FA4C05EBBC1C84EA0B0303EA0A0383EAF9
:1036E00004039C4450F8043B9C4451F8043B9C4424
:1036F000E14446EA070505EA080506EA070345EA44
:103700000305654486EAF62383EA365305EBB305E1
:1037100089EA791C8CEAF94C04EBBC1C8BEA0A039D
:1037200003EA090383EA0B039C4450F8043B9C44DE
:1037300051F8043B9C44E04445EA060404EA0704CB
:1037400005EA060344EA0304644485EAF52383EAB0
:10375000355304EBB304013A7FF4E5AEA0F1400029
:10376000BEF1010E7FF483AEA0F1400C9CE80F0087
:10377000001949199219DB19ACE80F009CE80F00F9
:103780004044494452445B44ACE80F00BDE8F08F2C
:103790002DE90050ACF1400288B0C3CACDE9000168
:1037A000B2E80303CDE90201B2E8300CCDE90445EB
:1037B000B2E80350CDE9060184EAD46080EA4510FE
:1037C00085EAD56181EA441180EA141080EA057027
:1037D00081EA151181EA04711CEB903C4EEB913E9D
:1037E0001CEB814C4EEB804EDDE9062382EA0A0099
:1037F00083EA0B0120402940504059401CEB000C4B
:103800005EEB010E0A980899D0E900451CEB040C08
:103810005EEB050ED1E900451CEB040C5EEB050EDA
:1038200018EB0C0859EB0E09D0E9024512196B414F
:10383000D1E9024512196B41DDE904458AEA040029
:103840008BEA050110EA080011EA090190EA0A0072
:1038500091EA0B0112184B4188EAD86080EA4910BE
:1038600089EAD96181EA481180EA181080EA097072
:1038700081EA191181EA087112EB903243EB91331E
:1038800012EB814243EB8043CDE90623DDE90023BF
:10389000DDE9024582EAD22080EA435083EAD3215F
:1038A00081EA425180EA921080EA836081EA9311B2
:1038B00081EA82611CEB107C4EEB117E1CEB011C3B
:1038C0004EEB001E82EA0601324001EA040050403D
:1038D0001CEB000C01EA0C00504083EA07023B405D
:1038E00012EA050159405EEB010E02EA0E01594051
:1038F000DDE90623A4185D41CDE9024512184B41CC
:103900008CEADC2080EA4E508EEADE2181EA4C51BE
:1039100080EA9C1080EA8E6081EA9E1181EA8C61C7
:1039200012EB107243EB117312EB011243EB001315
:10393000CDE9062384EAD46080EA451085EAD561A2
:1039400081EA441180EA141080EA057081EA1511B9
:1039500081EA04711AEB903A4BEB913B1AEB814AE6
:103960004BEB804BDDE9042382EA080083EA09017E
:1039700020402940504059401AEB000A5BEB010BF4
:103980000A980899D0E904451AEB040A5BEB050B89
:10399000D1E904451AEB040A5BEB050B16EB0A06AA
:1039A00057EB0B07D0E9064512196B41D1E90645E3
:1039B00012196B41DDE9024588EA040089EA050134
:1039C0003040394090EA080091EA090112184B4151
:1039D00086EAD66080EA471087EAD76181EA461115
:1039E00080EA161080EA077081EA171181EA0671F1
:1039F00012EB903243EB913312EB814243EB804365
:103A0000CDE90423DDE90623DDE9004582EAD22081
:103A100080EA435083EAD32181EA425180EA92103E
:103A200080EA836081EA931181EA82611AEB107A5D
:103A30004BEB117B1AEB011A4BEB001B82EA0C01DA
:103A400012EA0C0201EA040050401AEB000A01EAF3
:103A50000A00504083EA0E0213EA0E0312EA05013F
:103A600059405BEB010B02EA0B015940DDE90423ED
:103A7000A4185D41CDE9004512184B418AEADA20CD
:103A800080EA4B508BEADB2181EA4A5180EA9A10A6
:103A900080EA8B6081EA9B1181EA8A6112EB1072E5
:103AA00043EB117312EB011243EB0013CDE9042336
:103AB00084EAD46080EA451085EAD56181EA441140
:103AC00080EA141080EA057081EA151181EA047118
:103AD00018EB903849EB913918EB814849EB804954
:103AE000DDE9022382EA060083EA0701204029403B
:103AF0005040594018EB000859EB01090A98089901
:103B0000D0E9084518EB040859EB0509D1E9084547
:103B100018EB040859EB05091CEB080C5EEB090EC9
:103B2000D0E90A4512196B41D1E90A4512196B41D6
:103B3000DDE9004586EA040087EA050110EA0C0089
:103B400011EA0E017040794012184B418CEADC609A
:103B500080EA4E108EEADE6181EA4C1180EA1C1088
:103B600080EA0E7081EA1E1181EA0C7112EB90322C
:103B700043EB913312EB814243EB8043CDE90223C7
:103B8000DDE90423DDE9064582EAD22080EA4350DC
:103B900083EAD32181EA425180EA921080EA83606D
:103BA00081EA931181EA826118EB107849EB11796F
:103BB00018EB011849EB001982EA0A0112EA0A021D
:103BC00001EA0400504018EB000801EA08005040E8
:103BD00083EA0B0213EA0B0312EA0501594059EB81
:103BE000010902EA09015940DDE90223A4185D41F7
:103BF000CDE9064512184B4188EAD82080EA4950A1
:103C000089EAD92181EA485180EA981080EA8960DE
:103C100081EA991181EA886112EB107243EB11730A
:103C200012EB011243EB0013CDE9022384EAD460C6
:103C300080EA451085EAD56181EA441180EA1410D2
:103C400080EA057081EA151181EA047116EB90365D
:103C500047EB913716EB814647EB8047DDE90023C0
:103C600082EA0C0083EA0E0120402940504059406E
:103C700036184F410A980899D0E90C4536196F411A
:103C8000D1E90C4536196F411AEB060A5BEB070BBD
:103C9000D0E90E4512196B41D1E90E4512196B415D
:103CA000DDE906458CEA04008EEA050110EA0A0007
:103CB00011EA0B0190EA0C0091EA0E0112184B4137
:103CC0008AEADA6080EA4B108BEADB6181EA4A110A
:103CD00080EA1A1080EA0B7081EA1B1181EA0A71EE
:103CE00012EB903243EB913312EB814243EB804372
:103CF000CDE90023DDE90223DDE9044582EAD22093
:103D000080EA435083EAD32181EA425180EA92104B
:103D100080EA836081EA931181EA826116EB107672
:103D200047EB117716EB011647EB001782EA080103
:103D300012EA080201EA04005040361801EA0600BF
:103D4000504083EA090213EA090312EA05015940C7
:103D50004F4102EA07015940DDE90023A4185D4103
:103D6000CDE9044512184B4186EAD62080EA475037
:103D700087EAD72181EA465180EA961080EA876077
:103D800081EA971181EA866112EB107243EB11739D
:103D900012EB011243EB0013CDE9002384EAD46057
:103DA00080EA451085EAD56181EA441180EA141061
:103DB00080EA057081EA151181EA04711CEB903CE0
:103DC0004EEB913E1CEB814C4EEB804EDDE9062321
:103DD00082EA0A0083EA0B01204029405040594002
:103DE0001CEB000C5EEB010E0A980899D0E9104517
:103DF0001CEB040C5EEB050ED1E910451CEB040C2A
:103E00005EEB050E18EB0C0859EB0E09D0E91245D4
:103E100012196B41D1E9124512196B41DDE90445D4
:103E20008AEA04008BEA050110EA080011EA090198
:103E300090EA0A0091EA0B0112184B4188EAD86017
:103E400080EA491089EAD96181EA481180EA1810AC
:103E500080EA097081EA191181EA087112EB903247
:103E600043EB913312EB814243EB8043CDE90623D0
:103E7000DDE90023DDE9024582EAD22080EA4350F1
:103E800083EAD32181EA425180EA921080EA83607A
:103E900081EA931181EA82611CEB107C4EEB117E6A
:103EA0001CEB011C4EEB001E82EA0601324001EAC7
:103EB000040050401CEB000C01EA0C00504083EA67
:103EC00007023B4012EA050159405EEB010E02EA8F
:103ED0000E015940DDE90623A4185D41CDE90245F4
:103EE00012184B418CEADC2080EA4E508EEADE212B
:103EF00081EA4C5180EA9C1080EA8E6081EA9E1132
:103F000081EA8C6112EB107243EB117312EB011218
:103F100043EB0013CDE9062384EAD46080EA451020
:103F200085EAD56181EA441180EA141080EA0570BF
:103F300081EA151181EA04711AEB903A4BEB913B3F
:103F40001AEB814A4BEB804BDDE9042382EA08003F
:103F500083EA090120402940504059401AEB000AE9
:103F60005BEB010B0A980899D0E914451AEB040A97
:103F70005BEB050BD1E914451AEB040A5BEB050B6F
:103F800016EB0A0657EB0B07D0E9164512196B41E1
:103F9000D1E9164512196B41DDE9024588EA0400B2
:103FA00089EA05013040394090EA080091EA0901A8
:103FB00012184B4186EAD66080EA471087EAD7613B
:103FC00081EA461180EA161080EA077081EA17112B
:103FD00081EA067112EB903243EB913312EB81428E
:103FE00043EB8043CDE90423DDE90623DDE9004509
:103FF00082EAD22080EA435083EAD32181EA425107
:1040000080EA921080EA836081EA931181EA8261FA
:104010001AEB107A4BEB117B1AEB011A4BEB001BDE
:1040200082EA0C0112EA0C0201EA040050401AEB89
:10403000000A01EA0A00504083EA0E0213EA0E0366
:1040400012EA050159405BEB010B02EA0B015940F2
:10405000DDE90423A4185D41CDE9004512184B4168
:104060008AEADA2080EA4B508BEADB2181EA4A5166
:1040700080EA9A1080EA8B6081EA9B1181EA8A616A
:1040800012EB107243EB117312EB011243EB0013AE
:10409000CDE9042384EAD46080EA451085EAD5613D
:1040A00081EA441180EA141080EA057081EA151152
:1040B00081EA047118EB903849EB913918EB81488B
:1040C00049EB8049DDE9022382EA060083EA070121
:1040D000204029405040594018EB000859EB010995
:1040E0000A980899D0E9184518EB040859EB050916
:1040F000D1E9184518EB040859EB05091CEB080C2D
:104100005EEB090ED0E91A4512196B41D1E91A4547
:1041100012196B41DDE9004586EA040087EA0501D2
:1041200010EA0C0011EA0E017040794012184B4160
:104130008CEADC6080EA4E108EEADE6181EA4C1186
:1041400080EA1C1080EA0E7081EA1E1181EA0C716F
:1041500012EB903243EB913312EB814243EB8043FD
:10416000CDE90223DDE90423DDE9064582EAD22018
:1041700080EA435083EAD32181EA425180EA9210D7
:1041800080EA836081EA931181EA826118EB1078FA
:1041900049EB117918EB011849EB001982EA0A0181
:1041A00012EA0A0201EA0400504018EB000801EA92
:1041B0000800504083EA0B0213EA0B0312EA0501E0
:1041C000594059EB010902EA09015940DDE902238E
:1041D000A4185D41CDE9064512184B4188EAD82064
:1041E00080EA495089EAD92181EA485180EA981049
:1041F00080EA896081EA991181EA886112EB107284
:1042000043EB117312EB011243EB0013CDE90223D0
:1042100084EAD46080EA451085EAD56181EA4411D8
:1042200080EA141080EA057081EA151181EA0471B0
:1042300016EB903647EB913716EB814647EB8047FC
:10424000DDE9002382EA0C0083EA0E0120402940C8
:104250005040594036184F410A980899D0E91C45FA
:1042600036196F41D1E91C4536196F411AEB060A20
:104270005BEB070BD0E91E4512196B41D1E91E45D6
:1042800012196B41DDE906458CEA04008EEA05014E
:1042900010EA0A0011EA0B0190EA0C0091EA0E0103
:1042A00012184B418AEADA6080EA4B108BEADB6134
:1042B00081EA4A1180EA1A1080EA0B7081EA1B1128
:1042C00081EA0A7112EB903243EB913312EB814297
:1042D00043EB8043CDE90023DDE90223DDE904451A
:1042E00082EAD22080EA435083EAD32181EA425114
:1042F00080EA921080EA836081EA931181EA826108
:1043000016EB107647EB117716EB011647EB00170B
:1043100082EA080112EA080201EA04005040361855
:1043200001EA0600504083EA090213EA090312EA8F
:10433000050159404F4102EA07015940DDE90023D8
:10434000A4185D41CDE9044512184B4186EAD620F8
:1043500080EA475087EAD72181EA465180EA9610E1
:1043600080EA876081EA971181EA866112EB107218
:1043700043EB117312EB011243EB0013CDE9002361
:104380000A9880300A90089AA2F140021BBCC3C26E
:10439000A2E818031BBCA2E8030CA2E81850BDE871
:1043A000009000BF00B59CE8F00FDCE91201DCE9E9
:1043B0001C23241845EB01054FEA560E8EEAC77EF2
:1043C0008EEA162E8EEA076E8EEAD61E8EEA476EAB
:1043D00014EB0E044FEA570E8EEAC67E8EEA172EB5
:1043E0008EEA066E8EEAD71E45EB0E054FEAD24ED8
:1043F0008EEA433E8EEAC20E8EEA537E8EEA921E0B
:104400008EEA836E14EB0E044FEAD34E8EEA423EE0
:104410008EEAC30E8EEA527E8EEA931E45EB0E059F
:10442000DCE91401DCE91E23361847EB01074FEAEB
:10443000580E8EEAC97E8EEA182E8EEA096E8EEA32
:10444000D81E8EEA496E16EB0E064FEA590E8EEA1A
:10445000C87E8EEA192E8EEA086E8EEAD91E47EBC8
:104460000E074FEAD24E8EEA433E8EEAC20E8EEA25
:10447000537E8EEA921E8EEA836E16EB0E064FEA8C
:10448000D34E8EEA423E8EEAC30E8EEA527E8EEA0A
:10449000931E47EB0E07DCE9160118EB000849EB09
:1044A00001094FEA5A0E8EEACB7E8EEA1A2E8EEA68
:1044B0000B6E8EEADA1E8EEA4B6E18EB0E084FEA90
:1044C0005B0E8EEACA7E8EEA1B2E8EEA0A6E8EEA9A
:1044D000DB1E49EB0E094FEAD44E8EEA453E8EEACA
:1044E000C40E8EEA557E8EEA941E8EEA856E18EB17
:1044F0000E084FEAD54E8EEA443E8EEAC50E8EEA8D
:10450000547E8EEA951E49EB0E09DCE91801DCE9C0
:1045100008231AEB000A4BEB010B4FEA520E8EEA0E
:10452000C37E8EEA122E8EEA036E8EEAD21E8EEAC9
:10453000436E1AEB0E0A4FEA530E8EEAC27E8EEAE3
:10454000132E8EEA026E8EEAD31E4BEB0E0B4FEA51
:10455000D64E8EEA473E8EEAC60E8EEA577E8EEA29
:10456000961E8EEA876E1AEB0E0A4FEAD74E8EEA37
:10457000463E8EEAC70E8EEA567E8EEA971E4BEBBB
:104580000E0BACE8F00FDCE91201DCE9026712184F
:1045900043EB01034FEA560E8EEAC77E8EEA162ED3
:1045A0008EEA076E8EEAD61E8EEA476E12EB0E0278
:1045B0004FEA570E8EEAC67E8EEA172E8EEA066EF8
:1045C0008EEAD71E43EB0E034FEAD84E8EEA493EE1
:1045D0008EEAC80E8EEA597E8EEA981E8EEA896EA1
:1045E00012EB0E024FEAD94E8EEA483E8EEAC90E11
:1045F0008EEA587E8EEA991E43EB0E03DCE9140125
:10460000DCE90489361847EB01074FEA580E8EEAB9
:10461000C97E8EEA182E8EEA096E8EEAD81E8EEAC0
:10462000496E16EB0E064FEA590E8EEAC87E8EEAE8
:10463000192E8EEA086E8EEAD91E47EB0E074FEA56
:10464000DA4E8EEA4B3E8EEACA0E8EEA5B7E8EEA28
:104650009A1E8EEA8B6E16EB0E064FEADB4E8EEA42
:104660004A3E8EEACB0E8EEA5A7E8EEA9B1E47EBBE
:104670000E07DCE91601DCE906AB18EB000849EB94
:1046800001094FEA5A0E8EEACB7E8EEA1A2E8EEA86
:104690000B6E8EEADA1E8EEA4B6E18EB0E084FEAAE
:1046A0005B0E8EEACA7E8EEA1B2E8EEA0A6E8EEAB8
:1046B000DB1E49EB0E094FEAD24E8EEA433E8EEAEC
:1046C000C20E8EEA537E8EEA921E8EEA836E18EB3D
:1046D0000E084FEAD34E8EEA423E8EEAC30E8EEAB1
:1046E000527E8EEA931E49EB0E09DCE908011AEBB3
:1046F000040A4BEB050B4FEA500E8EEAC17E8EEAA0
:10470000102E8EEA016E8EEAD01E8EEA416E1AEBF2
:104710000E0A4FEA510E8EEAC07E8EEA112E8EEA04
:10472000006E8EEAD11E4BEB0E0B4FEAD64E8EEA90
:10473000473E8EEAC60E8EEA577E8EEA961E8EEAB7
:10474000876E1AEB0E0A4FEAD74E8EEA463E8EEA85
:10475000C70E8EEA567E8EEA971E4BEB0E0BACE828
:10476000CC0F5CE90E45DCE90267001941EB05015D
:104770004FEA560E8EEAC77E8EEA162E8EEA076E36
:104780008EEAD61E8EEA476E10EB0E004FEA570EE9
:104790008EEAC67E8EEA172E8EEA066E8EEAD71E47
:1047A00041EB0E014FEAD84E8EEA493E8EEAC80E22
:1047B0008EEA597E8EEA981E8EEA896E10EB0E0004
:1047C0004FEAD94E8EEA483E8EEAC90E8EEA587EEE
:1047D0008EEA991E41EB0E015CE90C45DCE9048987
:1047E000361947EB05074FEA580E8EEAC97E8EEA66
:1047F000182E8EEA096E8EEAD81E8EEA496E16EBE6
:104800000E064FEA590E8EEAC87E8EEA192E8EEAFF
:10481000086E8EEAD91E47EB0E074FEADA4E8EEA93
:104820004B3E8EEACA0E8EEA5B7E8EEA9A1E8EEAB6
:104830008B6E16EB0E064FEADB4E8EEA4A3E8EEA90
:10484000CB0E8EEA5A7E8EEA9B1E47EB0E075CE982
:104850000A45DCE906AB18EB040849EB05094FEA09
:104860005A0E8EEACB7E8EEA1A2E8EEA0B6E8EEAF6
:10487000DA1E8EEA4B6E18EB0E084FEA5B0E8EEADC
:10488000CA7E8EEA1B2E8EEA0A6E8EEADB1E49EB8A
:104890000E094FEAD04E8EEA413E8EEAC00E8EEAF5
:1048A000517E8EEA901E8EEA816E18EB0E084FEA5A
:1048B000D14E8EEA403E8EEAC10E8EEA507E8EEADE
:1048C000911E49EB0E09DCE908451AEB020A4BEB95
:1048D000030B4FEA540E8EEAC57E8EEA142E8EEA42
:1048E000056E8EEAD41E8EEA456E1AEB0E0A4FEA6A
:1048F000550E8EEAC47E8EEA152E8EEA046E8EEA7E
:10490000D51E4BEB0E0B4FEAD64E8EEA473E8EEA93
:10491000C60E8EEA577E8EEA961E8EEA876E1AEBD8
:104920000E0A4FEAD74E8EEA463E8EEAC70E8EEA50
:10493000567E8EEA971E4BEB0E0BACE8C30F5CE97C
:104940000E23DCE90267A41845EB03054FEA560E77
:104950008EEAC77E8EEA162E8EEA076E8EEAD61E85
:104960008EEA476E14EB0E044FEA570E8EEAC67EAF
:104970008EEA172E8EEA066E8EEAD71E45EB0E05DE
:104980004FEAD84E8EEA493E8EEAC80E8EEA597E2C
:104990008EEA981E8EEA896E14EB0E044FEAD94E09
:1049A0008EEA483E8EEAC90E8EEA587E8EEA991E3D
:1049B00045EB0E055CE90C23DCE90489B61847EBEE
:1049C00003074FEA580E8EEAC97E8EEA182E8EEA49
:1049D000096E8EEAD81E8EEA496E16EB0E064FEA75
:1049E000590E8EEAC87E8EEA192E8EEA086E8EEA7D
:1049F000D91E47EB0E074FEADA4E8EEA4B3E8EEA9F
:104A0000CA0E8EEA5B7E8EEA9A1E8EEA8B6E16EBDB
:104A10000E064FEADB4E8EEA4A3E8EEACB0E8EEA57
:104A20005A7E8EEA9B1E47EB0E075CE90A23DCE9FF
:104A300006AB18EB020849EB03094FEA5A0E8EEA5F
:104A4000CB7E8EEA1A2E8EEA0B6E8EEADA1E8EEA84
:104A50004B6E18EB0E084FEA5B0E8EEACA7E8EEAAA
:104A60001B2E8EEA0A6E8EEADB1E49EB0E094FEA18
:104A7000D44E8EEA453E8EEAC40E8EEA557E8EEA0C
:104A8000941E8EEA856E18EB0E084FEAD54E8EEA1C
:104A9000443E8EEAC50E8EEA547E8EEA951E49EBA0
:104AA0000E095CE918231AEB000A4BEB010B4FEAE5
:104AB000520E8EEAC37E8EEA122E8EEA036E8EEAC4
:104AC000D21E8EEA436E1AEB0E0A4FEA530E8EEA9E
:104AD000C27E8EEA132E8EEA026E8EEAD31E4BEB56
:104AE0000E0B4FEAD64E8EEA473E8EEAC60E8EEA8F
:104AF000577E8EEA961E8EEA876E1AEB0E0A4FEAF2
:104B0000D74E8EEA463E8EEAC70E8EEA567E8EEA73
:104B1000971E4BEB0E0B8CE8F00FACF1600C00BD58
:104B20002DE9F24F00F1400CB0E8F807ACE8F807C7
:104B3000B0E8F807ACE8F807FEF72AFEFFF732FC0A
:104B4000FEF726FEFFF72EFCFEF722FEFFF72AFCFB
:104B5000FEF71EFEFFF726FCFEF71AFEACF18008FA
:104B600008F1400998E80F0CB9E8F05000196941C4
:104B700092197B411AEB0C0A4BEB0E0BA8E80F0CB9
:104B800098E80F0CB9E8F0500019694192197B417F
:104B90001AEB0C0A4BEB0E0BA8E80F0C98E80F0071
:104BA00099E8F0000019694192197B4188E80F00EB
:104BB000BDE8F88F074B1B78002B4FF00003836094
:104BC0000360054B436014BF02220122FF23C27120
:104BD00003727047280E002010010800F8B5C41DAC
:104BE000002824F00704054614BF2046002000F0EA
:104BF000EDFA071E02DA6FF00B00F8BD0DB9FC42AA
:104C0000F9D42D4E317AF079B37A727A03310330C8
:104C100008F017FD0028EEDBB178F378274403375E
:104C2000002D194427F0030700FB01F114BF38469B
:104C3000002000F0FBFB07440DB9002FDBDB012057
:104C40003C4600F0B9FA90B1F17A81B1FC1D002D1B
:104C500024F0070414BF204600202523282201F059
:104C6000F3FA0028C7DB04440DB9002CC3DBB37B87
:104C7000ABB1012000F0A0FA88B1F37A7BB1073420
:104C8000002D24F0070414BF20460020B17B02F061
:104C900007FD0028AFDB04440DB9002CABDBB36A81
:104CA0001BB135B1B4620020A7E7002DFBD120462F
:104CB000A3E72834FBD59EE7280E00201FB572B667
:104CC000184BDD6AE5B9BFF34F8F1749174BCA6818
:104CD00002F4E0621343CB60BFF34F8F00BFFDE7E8
:104CE000B2FBF6F2DCB20133002AF9D104F1100371
:104CF0006B4403F80C2C0A2234B901A8A847E2E758
:104D0000024600230A26EDE7631E04AEDCB256FA23
:104D100083F3B0FBF2F602FB1600303003F80C0C04
:104D20003046E9E7280E002000ED00E00400FA0517
:104D300007B50C4B9A7A8DF801205A7A8DF800202D
:104D400068461A7ADB79ADF80420ADF8023001F03C
:104D5000ABFF18B1D9210320FFF7B0FF03B05DF816
:104D600004FB00BF280E002038B5044670B306F0DF
:104D7000EBFC10B94FF0FF3038BD09F0B8FCB0F5CE
:104D8000FA7FF7D8144D1548EC62002400F08EF934
:104D900026222146A81C85F830402C70AC6207F012
:104DA00093F80123AB701B23EB7140F21B332B8173
:104DB00040F202336B810823AB73EFF3108572B6B8
:104DC00000F04CFB2DB962B62846D5E76FF0150010
:104DD000D2E72046D0E700BF280E0020314D00006A
:104DE00038B51446002844D1234D95F83030032BB4
:104DF0003CD071B112B96FF0150038BD01390629E8
:104E000037D8DFE801F00436153625362E00137842
:104E1000AB700020FFF7E2FE0028B7BF012302239A
:104E200085F830306FF00B00A8BF85F83030E4E72C
:104E30009378002BDFD0D378002BDCD013781A2B9B
:104E4000D9D953781A2BD6D91368C5F80730E0E7BB
:104E5000012000F0B1F9237808B1012BCBD9EB7216
:104E6000D7E71388FF2BC6D8AB73D2E74FF0FF30DC
:104E7000C3E76FF02C00C0E7280E0020F8B50D4600
:104E8000064630B329B311F0070422D1124F97F828
:104E90003030012B02D16FF00B00F8BD032B02D193
:104EA0004FF0FF30F9E700F05FF80028F8D028460F
:104EB000FFF794FE0028EEDB09F057FB3046B96A95
:104EC00001F052FFFFF734FF032387F8303020460C
:104ED000E3E76FF01500E0E7280E002010B5074C5F
:104EE00094F83030032B03D101F05AFF02F010FB8D
:104EF00008F0FDFB002084F8300010BD280E0020D3
:104F000050B1074B03F1140253F8041B40F8041B83
:104F10009342F9D1002070476FF01500704700BF31
:104F2000D49F030010B5074B93F830403CB901F013
:104F300007FF0120044900F037F9204610BD4FF06B
:104F4000FF30FBE7280E0020B54B0000024B026843
:104F50001A600020704700BF5C0E0020014B1B68E8
:104F6000184700BF5C0E0020024B1868003818BFBD
:104F7000012070475C0E00202DE9F8431C4E0446CA
:104F800000F104081A48C6F8008002F0D1FA02289D
:104F9000054606D11649204607F0FEFF2846BDE823
:104FA000F88304281CD13146204608F05AF8B0F5A1
:104FB000817F03D372210820FFF780FE0028E1D013
:104FC000277894F80290384600F028F80028D9D0C5
:104FD0003E2FE3D1484600F059F80028DED1D1E752
:104FE0000828DBD10249204608F005F8D6E700BFC3
:104FF000600E0020074B4FF0FF3141F6FF72C3E90E
:10500000001205490022C1E900221F21C3E9021252
:10501000704700BF00000020640F00203F280CD81C
:1050200001380B4BC0F3421200F01F0053F822303E
:1050300023FA00F000F001007047FF2806D0403846
:10504000C0F34212034B00F01F00EFE7012070474E
:1050500000000020640F00200146074B00684968EB
:105060001A4603C240F48C221A6041F0107242F4D6
:10507000FF625A60704700BF000000200246024BEA
:105080000068516803C37047080000200138064BD0
:10509000C0F3421203EB820300F01F009B6823FA67
:1050A00000F000F00100704700000020014B186084
:1050B000704700BF6C0F002010B5FFF79BFF09F091
:1050C0002BF8034B1B68044603B19847204610BDDC
:1050D0006C0F00200B880288F0B5C3F30E049EB25B
:1050E00004F11403C57CC35A02352A442B4497B2F9
:1050F00013FA82F3013B4288B3FBF7F313FB074338
:105100009BB29A42044A93BF22EA060332401343F9
:105110009BB20B80F0BD00BF0080FFFF4A1E062A35
:1051200008B50346084604D84FF4D1711520FFF79F
:10513000C5FD094A914202D940F2A311F6E711B91F
:1051400003B1196008BD2BB11B680022C3E901211E
:105150001A1D1A600430F5E7FAFFFF7F10B5114BF6
:1051600000EB41041A786389B3FBF2F303FB0223DB
:10517000013A1A44B2F5706F027928BF00231A442D
:105180008378B2FBF3F0194403FB1020091AB1FB3A
:10519000F3F003FB101313446FEA43436FEA5343E6
:1051A000638110BD700F0020024B03EB8003596038
:1051B000704700BF700F0020034B03EB800358685B
:1051C000003818BF01207047700F00202DE9F04F04
:1051D00010F0070A85B0054604D040F2611117208F
:1051E000FFF76CFD554F07F10C06B1460446B0467B
:1051F0004FF0010B57F8043B8DF80BA03BB101A811
:1052000098479DF80A30082B01D9E821E7E79DF877
:105210000B1081BB05B13160B94506F10406E9D137
:105220002DB3DFF81CE100238EF800301E46022269
:1052300058F82200013A60B190F804A08178BAF1E0
:10524000FF0F66D14FF000078E4207713CBFCEB210
:105250000123511CECD10BB18EF80060022640F600
:10526000FF6A58F82670002F65D1013EF9D2601B05
:1052700005B0BDE8F08F9DF80AC0BCF1020FE6460C
:1052800001F1050238BF4FF0020E0EF1FF3004EBC2
:1052900042040444CEF100002040BDF808406444BC
:1052A000013CCCF1000C04EA0C04B4F5803F4FEA59
:1052B000420301D3F82192E775B1C31A33609970A4
:1052C0001C8083F803B09DF80C201A71019A1A8192
:1052D0004FEA124CA3F806C004FB01049CE758F8FF
:1052E0002C90B9F1000F06D099F804B0D34504BF53
:1052F00099F802904F440CF1FF3CBCF1000FEEDA3C
:105300003944FF29A0D90BB18EF8006040F2271173
:1053100065E794460027F0E707EB41033846A3F81A
:105320000AA0FFF71BFF09F10109BB785FFA89F1B9
:105330008B42F1D899E74FF00009F6E7740F00208F
:10534000700F00201D4B03EB810370B51C690546EF
:1053500044B3030404D54FF4DC711720FFF7AEFC0F
:105360000146204608F047F9FF28014604D02046B0
:10537000BDE8704008F05DB9A078B5FBF0F300FB24
:105380001353DBB219460A1D04EB4206B6F902605C
:10539000002E09DB0131B1FBF0F200FB1211C9B2A2
:1053A0008B42F0D1002070BDFF29FBD08B4204EB73
:1053B00042021CBF0023E3705580D8E7700F002025
:1053C000094B03EB810310B51C690146204608F028
:1053D00012F9FF28014604D02046BDE8104008F02D
:1053E00028B9002010BD00BF700F002038B50E4B4B
:1053F000827903EB82030446186908B9052038BD99
:105400008278E1799142F9D24B1CE37100EB4103C0
:105410005D89B3F90A30002BF3DBA58008F009F9A8
:1054200020600020EBE700BF700F002070B504463D
:1054300010F003000E4603D04F211820FFF73EFC6A
:10544000FFF76CFE054624B1034831460460FFF7C0
:1054500065FE284670BD00BF8C0F0020134B012253
:1054600000214FF0FF309A60C3F80012C3F8080320
:10547000C3F80015C3F804259A60C3F80803C3F8FD
:105480000015C3F804250A490A4A03F580334FF48E
:105490000040C3F80825C1F88000BFF34F8FBFF369
:1054A0006F8FC1F88001C3F80825704700F00040F5
:1054B00000E100E00000F63F014B1876704700BFA6
:1054C000900F0020024B1B68002283F87820704761
:1054D0005410002008B501F0E9FE014B187008BD1A
:1054E00010000020024B1868743000F00FBF00BF9E
:1054F0005410002038B50F4CFFF7F4FF256800F07A
:10550000C3FE23686867586F20B940F2EF4132202C
:10551000FFF7D4FB00F0E6FE10B940F2F141F6E7E8
:1055200002F072FE002002F081FE2368042283F85C
:10553000782038BD5410002070B52E4C23680646E4
:10554000586F00F0CFFE054620B941F2B531322048
:10555000FFF7B4FB236893F8543013B941F2BB3121
:10556000F5E77EB108F09DFF38B1236893F8782005
:10557000022A0FD841F23B31E9E7284608F0A9FF9B
:105580000028F2D1236893F87820022A19D841F232
:105590009B31DCE793F87820082A02D941F23C31AC
:1055A000D5E793F87830626803F180431269033BD2
:1055B000284652F8233098470C2814D941F2CE31AE
:1055C000C5E793F87820082A02D941F29C31BEE75A
:1055D00093F87830626803F180435269033B52F8D4
:1055E00023309847E8E76368DB68BDE8704053F80C
:1055F000203018475410002008B5074B93F90020BD
:105600007F2A04D14FF462713220FFF757FB0270FA
:105610007F221A7008BD00BF1000002030B504784A
:105620008FB004F00F04224604A908F03AFAFFF7FD
:1056300051FF042C34D11C4D059B2C68197894F82B
:105640007D2091422CD1597894F87E20914227D127
:10565000997894F87F20914222D1D97894F88020CB
:1056600091421DD1197994F88120914218D15A792B
:1056700094F882309A4213D19DF8212094F8833017
:105680009A420DD10DF10F00FFF7B6FF9DF90F30D3
:1056900000932A7A2B7B04A904F1740008F0F2F934
:1056A00003200FB030BD00BF5410002010B50F4ACA
:1056B000136893F87810022904D841F2BB413220D4
:1056C000FFF7FCFA93F87810082902D941F2BC419F
:1056D000F5E793F87830526803F180439268033B12
:1056E000BDE8104052F82330184700BF5410002086
:1056F00010B5054C637A2BB102F0C8FD02F08EF8AC
:105700000023637210BD00BF5410002010B5074C79
:10571000FFF7EEFF2368012283F87820FFF7E2FE0F
:105720002068BDE8104008F034BC00BF54100020D1
:1057300010B500B919B9BDE81040FFF7E7BF0F4A2F
:10574000136893F87810082904D841F28B4132206D
:10575000FFF7B4FA93F878100C2902D941F28C4182
:10576000F5E793F87830526803F180435268093BBB
:10577000BDE8104052F82330184700BF54100020F5
:1057800038B5314CFFF7AEFE256800F07DFD23688B
:105790006867586F20B940F24C413220FFF78EFA0B
:1057A00000F0A0FD054610B940F24E41F5E7236830
:1057B00093F890306BB123681A6D93F89110C3F889
:1057C000042193F854200A4383F85420002283F8DC
:1057D0009020206890F878305BB190F87830012BF9
:1057E00007D0002108F0C2FA18B9BDE83840FFF729
:1057F0008DBF2368154A93F87C30D05C02F0F8FB2B
:105800000121252002F000FB284602F0FDFC0121C9
:10581000084602F0F3FBE81C01F0A4FC607220B122
:1058200001F0E2FF402002F025FD2268002308215C
:10583000E372A3722373A2F87A30032382F87910FB
:1058400082F87830217238BD54100020EA600300DD
:1058500070B5394C236893F87830012B054604D98C
:1058600040F6E2013220FFF729FA02F0F9FA02F0DD
:105870000DFD01F0D3FF314802F0BEFC304802F0CC
:10588000B5FC304802F08EFB6B7A43B12068603083
:1058900008F074FD23689B6E0BB101221A602B7A0D
:1058A000032B02D140F61311DCE72068B3B90321C2
:1058B00090F87C2090F84A500E460132B2FBF6F385
:1058C00003EB4303D31ADAB245FA03F3DB0703D43D
:1058D000013911F0FF01F0D180F87C2090F95800D7
:1058E00002F05AFBFFF74CFF256895F8483013B3D8
:1058F000D5E922126FF000439A4208BFB1F1FF3F91
:1059000019D008F014FFD5E92223904271EB03036C
:1059100011D3012001F038FC68B1256801F004FCC6
:10592000044608F004FF084BA4FB03341B1844EBA7
:105930000104C5E9223470BD54100020B8000020D5
:1059400055555500D6BE898E40420F002DE9F041D5
:10595000564D064628692F68002303704370884619
:1059600002F052FC032E3CD12A69137823F00F0376
:1059700043F0030313700C23537007F17D01286972
:1059800008F071FD97F88310286908F080FD2B68F6
:1059900093F8482093F8417003F142047AB193F8E8
:1059A0005420520771D593F84C20002A6DD093F8FB
:1059B0004D0001F057FC00281CBF04460127286950
:1059C000214608F049FD2869394608F053FD384B57
:1059D000D3F80431002B5BD040F22F613220FFF767
:1059E0006DF9052EC9D12C692868237823F02F037F
:1059F00043EA4811222241F0050121706270036DD3
:105A0000DB69C4F80F30036D5A6AE274110A120C94
:105A1000217562759A69998D40F2E24CB1FBFCF1F7
:105A2000A175996AB2FBFCF2B1FBFCF16276E175FB
:105A3000C2F30722C1F307212176A2761A8CE276FF
:105A4000120A22775A8C6277120AA277D3F897202B
:105A5000C4F81F2093F89B3084F82330036D93F82B
:105A6000A23094F8242003F01F0322F01F021343F6
:105A700084F8243001F0C8F994F8243003F01F03AF
:105A800043EA401384F8243077E793F8790090E7ED
:105A9000052E08D12B6821681A6DC2F80A10A1885A
:105AA000D1811B6D5F72BDE8F08100BF54100020F2
:105AB0000010004010B50B4C00210320FFF746FFFB
:105AC0002068032108F052F918B9BDE81040FFF72B
:105AD0001DBE0121084602F0F3FB2368092283F86A
:105AE000782010BD541000202DE9F04F7D4C95B06A
:105AF0000546FFF7EFFC236893F8543013F0060FC8
:105B000004D001229621002008F04CFD2E7806F0EA
:105B10000F06284632460AA907F0C3FF0B9D75B34E
:105B20009DF83920012A58D16B7903F0C003A3F105
:105B3000400CDCF1000343EB0C03627A5AB153B121
:105B4000256808F04EFC236885F8790093F87930D1
:105B500023720123A372236893F8790008283ED1A9
:105B60000B999DF8390008F0F6FC22680B99054660
:105B700079329DF8390001F0BBFA002841D0216844
:105B800091F8543013F0030207D0062E91F84B2001
:105B900046D8002A0CBF2A46012202F0010213F067
:105BA000040381F87A2007D0062E91F84C3039D8BA
:105BB000002B0CBF2B46012303F0010381F87B303F
:105BC0000B9B0BB39DF8392081F883201A68C1F82C
:105BD0007D209B88A1F8813016E00023ADE708AA5C
:105BE0000DF11F0101F0A6FA20B940F6A2313220D2
:105BF000FFF764F89DF81F0008A908F0ACFC054603
:105C0000BDE72368A3F87A00062E00F2D880DFE80B
:105C100016F06B00F7000B00D600D600D600290066
:105C20000022BAE70023C7E702F04EFA256895F88C
:105C300054309F0701D1032533E095F87A30002BCB
:105C4000F9D008A8FFF7D8FC9DF920300293237AF9
:105C50000193FF230093022205F142030AA905F1F3
:105C600074003BE0256895F87A30002B00F0A7809F
:105C700095F854309E071AD508A8FFF7BDFC9DF98A
:105C800020300293237A0193FF23009305F17400DF
:105C900005F1420306220AA907F0E4FE002323735C
:105CA0000925FFF725FD284615B0BDE8F08FD80778
:105CB00040F18580590701D502F006FA08A8FFF7E0
:105CC0009BFC9DF9203020680293237A0193FF23E7
:105CD0000093062200F142030AA9743007F0C2FEC5
:105CE000A9E700BF54100020236893F854205207FE
:105CF0003CD593F87B20002A38D00B9A93F85A10A1
:105D0000107888425ED1507893F85B10884259D160
:105D1000907893F85C10884254D1D07893F85D1055
:105D200088424FD1107993F85E1088424AD1517958
:105D300093F85F20914245D19DF8392093F859108E
:105D4000A2EB010CDCF1000242EB0C0293F85610BE
:105D5000012953D0002A51D193F84D20082A03D0AD
:105D600093F87930934249D002F0AEF9256895F85E
:105D70007A30002B40D095F854309F0724D508A8DE
:105D8000FFF73AFC9DF920300293237A0193FF2319
:105D9000009305F1740005F1420300220AA907F0FF
:105DA00061FE012323730925236893F87B20002AD1
:105DB0007FF477AF93F87A30002B7FF472AF02F064
:105DC00083F938E70022C1E7DE0715D55D0701D565
:105DD00002F07AF908A8FFF70FFC9DF9203020683F
:105DE0000293237A0193FF230093002200F14203E0
:105DF0000AA9743007F036FE0325D5E70A25D3E754
:105E000022689DF83A1092F87A30059392F848305B
:105E100092F87BB0012983F0010A40F0AB800C9925
:105E20004F7907F0C007A7F140004742474192F879
:105E30005410490740F1A08092F84C10002900F05E
:105E40009B8092F84D50082D00F09980284601F073
:105E50002DF9002818BF8246002F00F092800C997F
:105E6000284601F0C5F90646216891F84100002E48
:105E700000F0898040F0020991F85420530752D570
:105E80000B9A91F85A5092F800C0AC457DD192F827
:105E900001C091F85B50AC4577D192F802C091F8FF
:105EA0005C50AC4571D192F803C091F85D50AC459F
:105EB0006BD192F804C091F85E50AC4565D155792C
:105EC00091F85F20954260D19DF8395091F85920A2
:105ED000A5EB020CDCF1000545EB0C0591F87920EF
:105EE000082A54D091F84D80A8EB0202D2F10008A4
:105EF00048EB0208002E4DD1BAF1000F4CD00C9B9C
:105F00009DF83A20423108F041FABBF1000F08D069
:105F1000236893F85630012B57D013B955EA08037C
:105F200053D102F0D1F8236893F854309B073FF423
:105F300082AE02F0C9F8059B002B3FF47CAE2068CE
:105F40000C9B9DF83A2000F1420190F8410008F0C6
:105F50001DFA08B925680EB308A8FFF74DFB9DF997
:105F6000203020680293237A0122CDE9009300F1CA
:105F70004203B1E600275AE792F8795063E700261A
:105F800072E73E4670E7814676E70025A6E74FF0C8
:105F90000008AFE70120B8E73046B6E795F855307E
:105FA000023B012B3FF647AE002F3FF444AE08A85A
:105FB000FFF722FB9DF920300293237A0193FE2301
:105FC0000093012205F1420348E60028A9D00A25E2
:105FD00067E600BFF8B5184F0E4638610121002072
:105FE000FFF7B0F9054620B940F67F013220FEF7F1
:105FF00065FE4FF48872002105F066FF0121084616
:10600000FFF7A0F9044620B14FF48872002105F093
:106010005BFF7B6813B940F68901E7E7304607F07C
:10602000BAFB284607F063FE24B12046BDE8F840DD
:1060300007F05DBEF8BD00BF54100020014B024ABE
:106040005A60704754100020A0000020026810B56C
:1060500022B940F653113220FEF730FE034B1A608E
:106060005B68BDE810401B68184700BF5410002053
:1060700038B590F84030054613F0FD0F14BF0120ED
:10608000002085F8410005F1420100F001FF95F87C
:106090004030023BDBB2012B94BF0123002385F883
:1060A000483015D801F040F8044608F040FB094B91
:1060B000A4FB03341B1844EB0104C5E9223400207F
:1060C00001F062F820B940F6F6113220FEF7F6FD35
:1060D00038BD00BF40420F000149363008F029BAF0
:1060E000FFD6000010B5074C0146206807F0F6FA0D
:1060F000EFF3108272B623790133DBB2237102B958
:1061000062B610BD681000202DE9F0474C4D0468C0
:106110009DF820809DF824901F462B790E46002183
:106120009246016073B92868A4F1080107F0D6FA15
:106130002B790133DBB22B71AB68002B7CD140F2A1
:10614000A1114AE01A2204F1090005F0BDFE012365
:10615000A372BAF1060F3ED8DFE80AF00421273D0A
:10616000313D2B00E37A23F0130343F01303E37272
:106170009DF92830237601232375FF23A375B9F1F8
:10618000080F4FF07F03E37504F10E0248D004F1CD
:106190000D01484600F0CEFF10BBB9211DE0E37AA7
:1061A00023F0150343F01503E1E7E37A43F010030E
:1061B000DDE7E37A23F0120343F01203D7E79DF8FB
:1061C0002C30E27A43F01A0322F01B0203F01B0387
:1061D0001A43E272CCE740F219413320FEF76EFD1C
:1061E000637B43F002036373E37A5B0721D5A8F175
:1061F0000202012A8BBFB2683A681168E26188BF67
:10620000E16104F11C0394BFBA8892889A8084F8F3
:106210001B80002323720B49204608F08AF98BE784
:10622000737C637373681968C4F80E109B8893803D
:10623000DAE7FF23E376ECE70023AB60BDE8F08705
:106240006810002013D90000233270B592B20546C1
:106250000C461E4607F00AFA35B1044A00231560C1
:10626000147356731471936070BD00BF68100020E2
:1062700010B5044C206807F01BFA0023A360237BB1
:10628000237110BD6810002070B5154DAE6826B1A1
:1062900040F23F113320FEF711FD286807F00EFA97
:1062A0000446A86010B94FF4A171F3E72B79013BC4
:1062B000DBB22B7100F1080523223146284605F098
:1062C00003FE7F23E377FF23A377637584F82330EE
:1062D000E37C012262F34613E374284670BD00BFDD
:1062E0006810002008B5084B9B681BB93D2133207E
:1062F000FEF7E4FC03F10802904202D04FF4AA71C9
:10630000F5E703F12B0008BD6810002010B5064C1E
:10631000A16841B1206807F0E1F923790133DBB2CC
:1063200023710023A36010BD681000202DE9F04FF9
:106330008FB004461F46BDF860800692894608F07B
:10634000F6F9D4F8C430039020460493059107F081
:10635000ECFB069B8346002F00F05181002B00F0E0
:10636000C1800746039B13F5FA65059B43F10006C0
:1063700000F050FA8246514604F1D800079000F030
:1063800025FAD4F8041111B1079807F02AFDBBF1E2
:10639000000F18D0D4F8E0B0BAF1000F16D0DAE947
:1063A0000031DAF80800C01841F10001CDE90056CB
:1063B0005A4607F013FE8345824607D240F2693100
:1063C0002120FEF77BFCD4F8C0B0E5E7D4F8C0305C
:1063D00003F2CF701AEB05058244BAFBF3FA03FB14
:1063E0000AFA46F10006B5EB0A0366F10002C4E9B9
:1063F0003632B8F1000F6CD14FF0FF326FF000432E
:10640000C4E92823012002F0B5F8D4E92813079342
:10641000079A4B1B00F523404FF47A7800F1A10056
:10642000B0FBF8F000F2652862EB0600012B70F17A
:1064300000024FF00002C0F2DB80DDF810C09C4586
:10644000824100DB0493DDF810A0D4F8C400069B61
:10645000824528BF8246C4F8CCA02BB1D4E93623AC
:10646000C4E92A56C4E92E234FF0000BC4E92C5688
:10647000C4F8C8802A4689F809B0334620460491FA
:1064800007F05CFBC9F8048089F80800002F00F0D1
:10649000B180012389F80030DDE90331059AC81A7B
:1064A000079B63EB0203012873F1000206DB6649D8
:1064B00081427BEB0303ACBF83468B46ABEB080109
:1064C000C9F81010C24534BF002001200FB0BDE84C
:1064D000F08F42F2107329463246E8FB0312C4E9FA
:1064E00028128FE7002800F08D80D4E928126FF081
:1064F00000439A4208BFB1F1FF3F75D0012002F07E
:1065000039F8069B8DF82030039B13F59A72059B92
:1065100000F5234043F10003CDE90C234FF47A75D5
:106520000223A130B0FBF5F000F2652508A809951B
:10653000ADF8283004F004F8074610B940F2954150
:106540003EE7D4E928320C99059E5B1A0D9962EB5F
:1065500001025B1B62F10002002A049B039DB8BF8D
:10656000002304934EE701208DF820B002F002F8DA
:1065700000F523404FF47A73A130B0FBF3F000F242
:1065800065200990D4E93603D4F8C050D4F8B0108F
:106590008DF829B00A1AB2FBF5F26A43121843F1DA
:1065A00000032046CDE90C2307F0C8FA29468DF8F0
:1065B000280008A807F01FFFDDE90C5641E0D4E9E8
:1065C0002A232046079107F0A1FA079900FB08F853
:1065D00018EB0A0041F10001C4E936012A463346AE
:1065E000204607F093FA0DE7039D059E074609E74D
:1065F000049228E7C9E9045689F8007062E7002B85
:106600007FF4B0AED4E936A1D4F8C080039BA3EBED
:106610000A051AEB0803B5FBF8F508FB05F541F18F
:106620000006ED184FF0000B46F10006002FC6D013
:10663000039BEB1AB3F59A7F95D218EB050546F14B
:1066400000065F46DEE600BF0040420F70B504461C
:106650000D4690F8003103F0FF0623B14FF4277187
:106660002120FEF72BFB11B940F29D21F8E70146EE
:106670000C4803F00BFF202884F8980010D0C4F8D1
:10668000045195F8D83103F0FF0113B140F2A6216F
:10669000E6E784F80811204607F048FC012070BDA9
:1066A0003046FCE74DDE000038B504460D46014695
:1066B000074803F0EBFE202884F8980005D0204618
:1066C000294607F033FC012038BD0020FCE700BF5D
:1066D0004DDE0000F7B51E4E012333700027CDE9D3
:1066E00000776846FEF782FE0546C8B10023337086
:1066F00003B0F0BD90F8D90104F006FE94F8D9017A
:1067000084F8D85103F0EEFE10B94FF4D7711BE0B6
:10671000202384F8D93104F5D87000F03BF8DEE787
:10672000009B002BDDD093F8D821002AD9D01888FF
:106730004FF6FF739842D9D02946FEF741FE044632
:106740000028D7D140F2BF113520FEF7B7FA00BFBD
:106750007C100020024B0022C3E90022FFF7BABFE1
:106760007C100020014B5870704700BF7C10002047
:10677000014B00221A6070478410002008B5044BBA
:10678000186810B9FFF7F4FF08BD0C20FCE700BF44
:106790008410002010B5D0E906436BB1D0E9022186
:1067A0001144DA689C610A44DA6082693AB1D361C3
:1067B0000023C0E9063310BD034A1460F5E7002B3F
:1067C000F6D0DA60F4E700BF8410002008B5C1619C
:1067D00091B90F4A1368836103B1D8611060C2692F
:1067E0000023C3609AB1D3687BB181688B420AD21F
:1067F0002D213720FEF762FA8B6988618361002BB7
:10680000EDD0D861EBE75B1AC3600023D36008BD0D
:1068100084100020034B1B68002003B97047184602
:106820009B69FAE7841000200B4B00221B6830B5EF
:1068300004464FF0FF35104623B911B9002808BFB0
:10684000104630BDDA68A24203D3AA423CBF1546C7
:1068500018461A469B69EFE78410002038B5036A92
:106860001BB182689C68A24203D2CD213720FEF77B
:1068700025FAC1698569D9619D6141B18B619969C9
:1068800041B1CB61C1680A44121BDA6038BD0249CC
:106890000B60F4E7D960F9E78410002010B50446D6
:1068A000084807F011F82046074907F028FA204663
:1068B00006F0C7FF20B12046FFF7DAFB002010BD2D
:1068C0001220FCE78C100020941000202DE9FF41DD
:1068D0000678012E074640F0878031460020FEF7FB
:1068E0006FFD054620B940F6C5613920FEF7E6F98F
:1068F000BB88002B72D106F048FF002870D195F8B4
:106900000031002B6ED12846FFF7C8FF044600284F
:1069100060D131463046DFF83C81FEF751FD98F8F2
:10692000183006461BB110B940F6E161DDE7D8F832
:1069300014200392002B45D096F80031002B41D053
:106940007B88002B3ED198F804300093D8F81020B3
:1069500098F8061003AB304606F086FF90B3304639
:1069600007F0F7F906F14003074605F140026C36DF
:1069700053F8041B42F8041BB342F9D12846FFF731
:106980008DFF024610B140F60371AEE70C2F07D120
:1069900001462846FFF788FEE0B940F60771A4E7F4
:1069A00017B140F60C71A0E798F80530296D43F057
:1069B000040385F854302846FFF748FE50B940F6E6
:1069C0000E7192E7BA8879882846FFF76DFE002895
:1069D00008BF0724204604B0BDE8F0811124F9E780
:1069E0003A24F7E70C24F5E701210020FEF7E8FC44
:1069F000054610B940F6217177E707F021F9044602
:106A00000028E7D195F8543095F8902022B195F8F8
:106A10009120134385F89000053B012BDAD82B6DAC
:106A200013B940F6317160E701210846FEF7C8FC52
:106A3000294606464FF4887205F0CEF90423316DDD
:106A400086F854303046FFF701FE0028C2D140F6E8
:106A500036714AE78810002070B5154D07F095FC97
:106A600000F030FB00F0B8F907F041FD00F040FC09
:106A700000F028FE00F054FC2A460E4B42F8043B7E
:106A80000D4B0E49196000241B219980DC821C8368
:106A90005C745C820A4B2C7718681979686008333B
:106AA000117193E8070005F10C0686E8070070BD38
:106AB000881000201B004801D414002003021B0092
:106AC000F4600300044B41F64C52C3E902221B223E
:106AD0001A74FFF7C1BF00BFD4140020014B93F913
